S01200004D41494E5F4D434741532E7372656323
S11300000C9434000C94AE050C9451000C945100E3
S11300100C9451000C9451000C9451000C94510018
S11300200C9451000C9451000C9451000C94510008
S11300300C9451000C9437010C9451000C94510011
S11300400C9451000C9451000C945E060C945100D5
S11300500C9451000C9451000C9451000C945100D8
S11300600C9451000C94510011241FBECFEFD8E022
S1130070DEBFCDBF11E0A0E0B1E0E4E4F3E102C0F3
S113008005900D92AA34B107D9F722E0AAE4B1E0B1
S113009001C01D92AA37B207E1F70E947C020C94BA
S11300A0A0090C940000CF93C82F90914C01892F84
S11300B0846080934C016EE70E940D0687EC90E00B
S11300C00197F1F700C00000C295C07F80914C01F8
S11300D06EE78C2B0E940D0680914C018B7F8093E0
S11300E04C016EE70E940D0687EC90E00197F1F752
S11300F000C00000CF910895CF93C82F611109C0AB
S113010080914C018E7F80934C016EE70E940D0616
S113011009C090914C01892F816080934C016EE756
S11301200E940D068C2F82958F700E9453008C2F95
S11301300E945300CF91089561E00E947C000895CD
S11301406130710569F038F06230710579F063301F
S1130150710591F0089560E080680E947C00089524
S1130160805C60E080680E947C0008958C5E60E0A2
S113017080680E947C0008958C5A60E080680E9428
S11301807C00089560E081E00E947C008FE697E1A6
S11301900197F1F700C0000008958FE59AEE0197EA
S11301A0F1F700C0000083E00E9453008FE79EE354
S11301B00197F1F700C0000083E00E9453008FE82C
S11301C091E00197F1F700C0000083E00E94530022
S11301D08FE99FE00197F1F700C0000082E00E94E0
S11301E053008FE99FE00197F1F700C0000060E041
S11301F088E20E947C008FE99FE00197F1F700C03C
S1130200000060E08CE00E947C008FE99FE0019791
S1130210F1F700C0000060E086E00E947C008FE9F6
S11302209FE00197F1F700C0000080914C018860C5
S113023080934C016EE70E940D0680914C018D7FE6
S113024080934C016EE70E940D060E94C20008953F
S1130250CF93DF93EC018881882331F021960E94AB
S11302609C0089918111FBCFDF91CF9108951F925A
S11302700F920FB60F9211242F933F934F935F93D6
S11302806F937F938F939F93AF93BF93EF93FF935A
S11302908091A2019091A30101969093A301809370
S11302A0A20120919B01253371F4059748F080E366
S11302B080939B010E94C2001092A3011092A2019C
S11302C081E380939B010E94D40487EF92EC909386
S11302D0850080938400FF91EF91BF91AF919F912E
S11302E08F917F916F915F914F913F912F910F90DB
S11302F00FBE0F901F901895BF92CF92DF92EF928E
S1130300FF921F93CF93DF9310922D0210922C0231
S1130310C9EFD0E00F2EF3E2BF2EF02D0F2EFEE238
S1130320CF2EF2E0DF2EF02D10E40F2EFEE0EF2EA4
S1130330F1E0FF2EF02D8FE99FE00197F1F700C067
S113034000005C9AEFE3FFE13197F1F700C0000091
S11303501F92BF92F60181811F928F93DF93CF93F7
S11303601F921F93FF92EF920E94D506EFE3FFE1E5
S11303703197F1F700C000005C988FE39CE9019786
S1130380F1F700C000002196EDB7FEB73A960FB61C
S1130390F894FEBF0FBEEDBFCF3FD10561F6DF91EC
S11303A0CF911F91FF90EF90DF90CF90BF90089571
S11303B067E171E00E94A906009709F498C02091B2
S11303C0A6013091A70123303105D9F138F4213049
S11303D0310569F022303105F9F072C0243031055D
S11303E009F444C02530310509F455C069C090931F
S11303F055018093540167E171E080E090E00E9430
S1130400A9062091A6013091A7012F5F3F4F309399
S1130410A7012093A60168C09093520180935101D3
S113042067E171E080E090E00E94A9062091A601B6
S11304303091A7012F5F3F4F3093A7012093A6016E
S113044053C0909358018093570167E171E080E0B5
S113045090E00E94A9062091A6013091A7012F5F88
S11304603F4F3093A7012093A6013EC090939A0179
S11304708093990167E171E080E090E00E94A90611
S11304802091A6013091A7012F5F3F4F3093A70120
S11304902093A60129C090932A028093290267E140
S11304A071E080E090E00E94A9062091A6013091BD
S11304B0A7012F5F3F4F3093A7012093A60114C0DB
S11304C090939E0180939D0167E171E080E090E04C
S11304D00E94A9062091A6013091A7012F5F3F4FEA
S11304E03093A7012093A601009709F068CF1092DA
S11304F0A7011092A60108958FEF8AB9EEE2F2E007
S113050080E1808381E1818382E1828383E183834B
S113051084E1848380E380939B011092A301109271
S1130520A2011092500110924F0110924E018CE2E0
S113053091E090939A018093990190932A02809379
S113054029020E9447060E9443050E94F1050E9469
S1130550CD000E94C2008AE191E00E947D052FEF48
S113056087EA91E6215080409040E1F700C0000006
S1130570E1E8F0E0808185608083EFE6F0E080814F
S11305808160808387EF92EC909385008093840050
S11305907894612C512C44244394312C0F2EF3E293
S11305A0BF2EF02D0F2EFEE2CF2EF2E0DF2EF02D27
S11305B010E40F2EFEE0EF2EF1E0FF2EF02D742C50
S11305C0A32C6894882481F8912C80919B01813319
S11305D089F018F4803341F0FACF823309F48DC1E5
S11305E0853309F495C1F3CF0E947C0185E38093A0
S11305F09B01EBCF80912B020E949E048EE20E940D
S11306005605809153010E949E048EE20E94560575
S11306108091A4010E949E0480E20E94560580916C
S11306209C010E949E048AE30E9456058091A101C8
S11306300E949E048AE30E9456058091A5010E94AF
S11306409E0485E291E00E947D0580912C029091A8
S11306502D02892B09F42AC1C62DD52DD093A001D2
S1130660C0939F015C9A8FE39FE10197F1F700C06B
S11306700000FE01E75AFE4F80811F92BF92F601EF
S113068090811F929F931F928F931F921F93FF92AB
S1130690EF920E94D5068FE39FE10197F1F700C026
S11306A000005C989FEFE3EFF1E09150E040F040F0
S11306B0E1F700C000008DB79EB70A960FB6F89414
S11306C09EBF0FBE8DBF80914F0190915001029744
S11306D009F0E3C070924F01A092500189EA91E0C1
S11306E00E94D8019092500180924F01A0919901EB
S11306F0B0919A01FD0101900020E9F73197EA1BBE
S1130700FB0B3397A0F48091290290912A02FC01FB
S113071001900020E9F73197E81BF90B339738F47F
S11307202C91233221F0FC018081833251F5809198
S11307305401909155010E947D0580E20E94560566
S113074089E291E00E947D0580E20E9456058FE2D5
S113075091E00E947D0580E20E9456058CE291E0C2
S11307600E947D0580E20E9456058CE291E00E9481
S11307707D0580E20E94560585E291E00E947D0598
S11307808CC080919F019091A001049760F16091C9
S11307909F017091A001625071098AE00E94A0003B
S11307A086E391E00E94280160919F017091A0016D
S11307B0625071098CE00E94A000809154019091D4
S11307C055010E94280160919F017091A00162501F
S11307D071098FE00E94A000809151019091520113
S11307E00E94280125C060919F017091A00180E0C2
S11307F00E94A00084E391E00E94280160919F017F
S11308007091A00180E00E94A00080915401909119
S113081055010E94280160919F017091A00184E01C
S11308200E94A00080915101909152010E942801E0
S113083080915401909155010E947D0580E20E94AF
S1130840560580915101909152010E947D0580E2EC
S11308500E94560580915701909158010E947D0590
S113086080E20E9456058091990190919A010E941C
S11308707D0580E20E9456058091290290912A020A
S11308800E947D0580E20E94560585E291E00E9467
S11308907D0560924F0150925001219680912C0267
S11308A090912D02C817D90708F4D8CE85E3809318
S11308B09B01642D732D8CE00E94A00081E491E0E3
S11308C00E942801642D732D8EE00E94A000809167
S11308D0990190919A010E942801642D732D82E15F
S11308E00E94A0008091290290912A020E9428016E
S11308F082E291E00E947D0568CE862D952DFC0153
S1130900E755FE4F1082019680389105C1F75DCE00
S1130910862D952DFC01E755FE4F108201968038F7
S11309209105C1F752CE982F92959F70990F292F58
S1130930220F220F920F8F70890F0895CF93DF93A8
S1130940D82FCDEC8C9FC12D1124C695C695C69584
S113095080E38C0F0E945605CC0F8C2F880F880FD4
S1130960C80F8D2F8C1B805D0E945605DF91CF919F
S11309700895CF93DF93D82FCDEC8C9FC12D1124F4
S1130980C695C695C69580E38C0F0E949C00CC0F3B
S11309908C2F880F880FC80F8D2F8C1B805D0E94B1
S11309A09C00DF91CF91089560ED80E00E940D06D8
S11309B08FE39CE90197F1F700C000000E94F50560
S11309C081ED0E9402060E941F068093A5010E94E9
S11309D01F068093A1010E941F0680939C010E9420
S11309E01F068093A8010E941F0680932B020E9479
S11309F01F06809353010E942A068093A4010E943B
S1130A00FE058091A5010E9493048093A501809125
S1130A10A1010E9493048093A10180919C010E94F2
S1130A20930480939C018091A8010E949304809375
S1130A30A8018091A4010E9493048093A401809151
S1130A4053010E9493048093530180912B020E94CE
S1130A50930480932B0260E070E08CE00E94A0007D
S1130A6080919C010E94B9048AE30E949C008091B9
S1130A70A1010E94B9048AE30E949C008091A5010F
S1130A800E94B9040895539A5B9A5298E89A85B7DC
S1130A90826085BF0895811101C05B988FE991E060
S1130AA00197F1F700C000005B9A08950F931F931C
S1130AB0CF93DF93082F80E00E944B05C0E0D0E085
S1130AC010E098010C2E02C0359527950A94E2F7A0
S1130AD020FF04C081E00E944B0503C080E00E9417
S1130AE04B052196C830D10561F781E00E944B0582
S1130AF0DF91CF911F910F9108950F931F93CF937F
S1130B00FC018081882359F08F01C0E0CF5F0E94EF
S1130B105605F801EC0FF11D80818111F7CFCF91BB
S1130B201F910F91089520E030E080E061E070E0D3
S1130B30EFE9F1E03197F1F700C000004A9B08C0EB
S1130B40AB01022E02C0440F551F0A94E2F7842B16
S1130B502F5F3F4F2830310559F708951F920F92A8
S1130B600FB60F9211242F933F934F935F936F937C
S1130B707F938F939F93AF93BF93EF93FF93E898E3
S1130B8085B78D7F85BF8FEC90E00197F1F700C0AA
S1130B9000004A9911C00E94930590914D01E92FDC
S1130BA0F0E0EC5AFD4F80839F5F913218F49093EC
S1130BB04D0102C010924D01EE9A85B7826085BF47
S1130BC0FF91EF91BF91AF919F918F917F916F9121
S1130BD05F914F913F912F910F900FBE0F901F90F7
S1130BE0189580E28093B800089584EA8093BC004D
S1130BF0ECEBF0E080818823ECF7089584E980939E
S1130C00BC0008958093BB0084E88093BC00ECEBA7
S1130C10F0E080818823ECF70895CF93DF93C82F09
S1130C20D62F0E94F5058D2F0E9402068C2F0E945C
S1130C30020684E98093BC00DF91CF91089584EC8F
S1130C408093BC00ECEBF0E080818823ECF780918A
S1130C50BB00089584E88093BC00ECEBF0E0808155
S1130C608823ECF78091BB000895CF93C82F8A3076
S1130C7019F48DE00E943506E0ECF0E0908195FFD8
S1130C80FDCFC093C60080E090E0CF91089510920C
S1130C90C50087E68093C40088E98093C1008EE094
S1130CA08093C20010924E0110925601789480E015
S1130CB091E0909377028093760208951F920F92A9
S1130CC00FB60F9211248F939F93EF93FF9380910C
S1130CD0C600882379F1E0914E01F0E0E755FE4F1C
S1130CE0808390914E019F5F90934E01833211F562
S1130CF08091AB01803119F0813141F019C082E05B
S1130D0090E09093500180934F0112C0E0912C0227
S1130D10F0912D028091AA01E75AFE4F80838091C1
S1130D202C0290912D02019690932D0280932C0217
S1130D3010924E0180914E01803811F410924E01B0
S1130D40FF91EF919F918F910F900FBE0F901F9085
S1130D5018954AE451E00E94AE060895FA01A19163
S1130D60B081009719F41097E1F0CD01DC01CD01B9
S1130D700D90002011F4C00113C0FB012191222326
S1130D8019F02015D9F7F3CFFB012191201519F49F
S1130D901E92119606C02223C1F70D900020A1F7E0
S1130DA0D001FA01A193B0830895A0E0B0E0EBED87
S1130DB0F6E00C947909AE014B5F5F4FFA01619143
S1130DC07191AF0180917602909177020E94EB06B7
S1130DD0E2E00C949509ACE0B0E0E1EFF6E00C94AD
S1130DE069097C016B018A01FC01178216828381E7
S1130DF081FFBDC1CE0101964C01F7019381F6013B
S1130E0093FD859193FF81916F01882309F4ABC110
S1130E10853239F493FD859193FF81916F01853279
S1130E2029F4B70190E00E94D308E7CF512C312C6C
S1130E3020E02032A0F48B3269F030F4803259F093
S1130E40833269F420612CC08D3239F0803339F457
S1130E50216026C02260246023C0286021C027FDB1
S1130E6027C030ED380F3A3078F426FF06C0FAE098
S1130E705F9E300D1124532E13C08AE0389E300D2E
S1130E801124332E20620CC08E3221F426FD6BC156
S1130E90206406C08C3611F4206802C0883641F400
S1130EA0F60193FD859193FF81916F018111C1CF6B
S1130EB0982F9F7D9554933028F40C5F1F4FFFE3C8
S1130EC0F9830DC0833631F0833771F0833509F02F
S1130ED05BC022C0F801808189830E5F1F4F4424C8
S1130EE04394512C540115C03801F2E06F0E711C6B
S1130EF0F801A080B18026FF03C0652D70E002C018
S1130F006FEF7FEFC5012C870E94C8082C01830175
S1130F102C852F77222E17C03801F2E06F0E711C3A
S1130F20F801A080B18026FF03C0652D70E002C0E7
S1130F306FEF7FEFC5012C870E94BD082C012C8523
S1130F402068222E830123FC1BC0832D90E04816C9
S1130F505906B0F4B70180E290E00E94D3083A94B5
S1130F60F4CFF50127FC859127FE81915F01B7013C
S1130F7090E00E94D30831103A94F1E04F1A5108DE
S1130F804114510471F7E5C0843611F0893639F5FE
S1130F90F80127FF07C060817181828193810C5F12
S1130FA01F4F08C060817181072E000C880B990BBC
S1130FB00E5F1F4F2F76722E97FF09C09095809574
S1130FC0709561957F4F8F4F9F4F2068722E2AE056
S1130FD030E0A4010E940B09A82EA81844C085374C
S1130FE029F42F7EB22E2AE030E025C0F22FF97FBB
S1130FF0BF2E8F36C1F018F4883579F0B4C080372D
S113100019F0883721F0AFC02F2F2061B22EB4FE23
S11310100DC08B2D8460B82E09C024FF0AC09F2FF9
S11310209660B92E06C028E030E005C020E130E02B
S113103002C020E132E0F801B7FE07C0608171818F
S1131040828193810C5F1F4F06C06081718180E0B3
S113105090E00E5F1F4FA4010E940B09A82EA81850
S1131060FB2DFF777F2E76FE0BC0372D3E7FA51418
S113107050F474FE0AC072FC08C0372D3E7E05C0D1
S1131080BA2C372D03C0BA2C01C0B52C34FF0DC0C7
S1131090FE01EA0DF11D8081803311F4397E09C00F
S11310A032FF06C0B394B39404C0832F867809F04A
S11310B0B39433FD13C030FF06C05A2CB31418F494
S11310C0530C5B18B32CB31468F4B70180E290E0BE
S11310D03C870E94D308B3943C85F5CFB31410F435
S11310E03B1801C0312C34FF12C0B70180E390E0FB
S11310F03C870E94D3083C8532FF17C031FD03C0F2
S113110088E790E002C088E590E0B7010CC0832F27
S1131110867859F031FF02C08BE201C080E237FDCE
S11311208DE2B70190E00E94D308A51438F4B7010A
S113113080E390E00E94D3085A94F7CFAA94F40174
S1131140EA0DF11D8081B70190E00E94D308A1103F
S1131150F5CF332009F451CEB70180E290E00E942C
S1131160D3083A94F6CFF7018681978102C08FEFB6
S11311709FEF2C96E2E10C948509FC0105906150E7
S113118070400110D8F7809590958E0F9F1F089599
S1131190FC016150704001900110D8F78095909542
S11311A08E0F9F1F08950F931F93CF93DF93FB011F
S11311B0238121FD03C08FEF9FEF28C022FF16C0BB
S11311C046815781248135814217530744F4A08115
S11311D0B1819D012F5F3F4F318320838C93268102
S11311E037812F5F3F4F3783268310C0EB01092FD0
S11311F0182F0084F185E02D0995892BE1F68E8165
S11312009F8101969F838E83812F902FDF91CF91B1
S11312101F910F910895FA01AA27283051F1203126
S113122081F1E8946F936E7F6E5F7F4F8F4F9F4F76
S1131230AF4FB1E03ED0B4E03CD0670F781F891FB8
S11312409A1FA11D680F791F8A1F911DA11D6A0F86
S1131250711D811D911DA11D20D009F468943F9139
S11312602AE0269F11243019305D3193DEF6CF0138
S11312700895462F4770405D4193B3E00FD0C9F7FE
S1131280F6CF462F4F70405D4A3318F0495D31FD6B
S11312904052419302D0A9F7EACFB4E0A6959795BE
S11312A0879577956795BA95C9F700976105710594
S11312B008959B01AC010A2E0694579547953795DE
S11312C02795BA95C9F7620F731F841F951FA01D38
S11312D008952F923F924F925F926F927F928F92D6
S11312E09F92AF92BF92CF92DF92EF92FF920F93B1
S11312F01F93CF93DF93CDB7DEB7CA1BDB0B0FB6BB
S1131300F894DEBF0FBECDBF09942A883988488877
S11313105F846E847D848C849B84AA84B984C8840D
S1131320DF80EE80FD800C811B81AA81B981CE0F04
S1131330D11D0FB6F894DEBF0FBECDBFED010895E9
S1071340F894FFCF4B
S113134400000002000000003506000000002563D0
S1131354256325632563002C20000A0D4D432D4786
S113136441530A0D0020092000302E303030003063
S11313743030300020202020202020202020202055
S10D138400542020204820202000FF
S9030000FC
